{
  "contractName": "ERC20",
  "abi": [
    {
      "inputs": [],
      "stateMutability": "nonpayable",
      "type": "constructor"
    },
    {
      "anonymous": false,
      "inputs": [
        {
          "indexed": true,
          "internalType": "address",
          "name": "owner",
          "type": "address"
        },
        {
          "indexed": true,
          "internalType": "address",
          "name": "spender",
          "type": "address"
        },
        {
          "indexed": false,
          "internalType": "uint256",
          "name": "value",
          "type": "uint256"
        }
      ],
      "name": "Approval",
      "type": "event"
    },
    {
      "anonymous": false,
      "inputs": [
        {
          "indexed": true,
          "internalType": "address",
          "name": "from",
          "type": "address"
        },
        {
          "indexed": true,
          "internalType": "address",
          "name": "to",
          "type": "address"
        },
        {
          "indexed": false,
          "internalType": "uint256",
          "name": "value",
          "type": "uint256"
        }
      ],
      "name": "Transfer",
      "type": "event"
    },
    {
      "inputs": [],
      "name": "totalSupply",
      "outputs": [
        {
          "internalType": "uint256",
          "name": "",
          "type": "uint256"
        }
      ],
      "stateMutability": "view",
      "type": "function"
    },
    {
      "inputs": [],
      "name": "getTokenDetails",
      "outputs": [
        {
          "internalType": "string",
          "name": "Name",
          "type": "string"
        },
        {
          "internalType": "string",
          "name": "Symbol",
          "type": "string"
        },
        {
          "internalType": "uint256",
          "name": "Decimals",
          "type": "uint256"
        },
        {
          "internalType": "address",
          "name": "Owner",
          "type": "address"
        },
        {
          "internalType": "address",
          "name": "ContractAddress",
          "type": "address"
        }
      ],
      "stateMutability": "view",
      "type": "function"
    },
    {
      "inputs": [
        {
          "internalType": "address",
          "name": "account",
          "type": "address"
        }
      ],
      "name": "balanceOf",
      "outputs": [
        {
          "internalType": "uint256",
          "name": "",
          "type": "uint256"
        }
      ],
      "stateMutability": "view",
      "type": "function"
    },
    {
      "inputs": [
        {
          "internalType": "address",
          "name": "recipient",
          "type": "address"
        },
        {
          "internalType": "uint256",
          "name": "amount",
          "type": "uint256"
        }
      ],
      "name": "transfer",
      "outputs": [
        {
          "internalType": "bool",
          "name": "",
          "type": "bool"
        }
      ],
      "stateMutability": "nonpayable",
      "type": "function"
    },
    {
      "inputs": [
        {
          "internalType": "address",
          "name": "spender",
          "type": "address"
        },
        {
          "internalType": "uint256",
          "name": "amount",
          "type": "uint256"
        }
      ],
      "name": "approve",
      "outputs": [
        {
          "internalType": "bool",
          "name": "",
          "type": "bool"
        }
      ],
      "stateMutability": "nonpayable",
      "type": "function"
    },
    {
      "inputs": [
        {
          "internalType": "address",
          "name": "tokenOwner",
          "type": "address"
        },
        {
          "internalType": "address",
          "name": "spender",
          "type": "address"
        }
      ],
      "name": "allowance",
      "outputs": [
        {
          "internalType": "uint256",
          "name": "",
          "type": "uint256"
        }
      ],
      "stateMutability": "view",
      "type": "function"
    },
    {
      "inputs": [
        {
          "internalType": "address",
          "name": "tokenOwner",
          "type": "address"
        },
        {
          "internalType": "address",
          "name": "recipient",
          "type": "address"
        },
        {
          "internalType": "uint256",
          "name": "amount",
          "type": "uint256"
        }
      ],
      "name": "transferFrom",
      "outputs": [
        {
          "internalType": "bool",
          "name": "",
          "type": "bool"
        }
      ],
      "stateMutability": "nonpayable",
      "type": "function"
    }
  ],
  "bytecode": "0x60806040523480156200001157600080fd5b506040518060400160405280601581526020017f57415044412045636f73797374656d20546f6b656e0000000000000000000000815250600390805190602001906200005f929190620001e2565b506040518060400160405280600381526020017f574554000000000000000000000000000000000000000000000000000000000081525060049080519060200190620000ad929190620001e2565b50601260058190555033600760006101000a81548173ffffffffffffffffffffffffffffffffffffffff021916908373ffffffffffffffffffffffffffffffffffffffff16021790555030600860006101000a81548173ffffffffffffffffffffffffffffffffffffffff021916908373ffffffffffffffffffffffffffffffffffffffff16021790555042607862000147919062000292565b600681905550600554600a6200015e91906200034a565b6301406f406200016f919062000487565b600281905550600254600080600760009054906101000a900473ffffffffffffffffffffffffffffffffffffffff1673ffffffffffffffffffffffffffffffffffffffff1673ffffffffffffffffffffffffffffffffffffffff1681526020019081526020016000208190555062000593565b828054620001f090620004f2565b90600052602060002090601f01602090048101928262000214576000855562000260565b82601f106200022f57805160ff191683800117855562000260565b8280016001018555821562000260579182015b828111156200025f57825182559160200191906001019062000242565b5b5090506200026f919062000273565b5090565b5b808211156200028e57600081600090555060010162000274565b5090565b60006200029f82620004e8565b9150620002ac83620004e8565b9250827fffffffffffffffffffffffffffffffffffffffffffffffffffffffffffffffff03821115620002e457620002e362000528565b5b828201905092915050565b6000808291508390505b6001851115620003415780860481111562000319576200031862000528565b5b6001851615620003295780820291505b8081029050620003398562000586565b9450620002f9565b94509492505050565b60006200035782620004e8565b91506200036483620004e8565b9250620003937fffffffffffffffffffffffffffffffffffffffffffffffffffffffffffffffff84846200039b565b905092915050565b600082620003ad576001905062000480565b81620003bd576000905062000480565b8160018114620003d65760028114620003e15762000417565b600191505062000480565b60ff841115620003f657620003f562000528565b5b8360020a91508482111562000410576200040f62000528565b5b5062000480565b5060208310610133831016604e8410600b8410161715620004515782820a9050838111156200044b576200044a62000528565b5b62000480565b620004608484846001620002ef565b925090508184048111156200047a576200047962000528565b5b81810290505b9392505050565b60006200049482620004e8565b9150620004a183620004e8565b9250817fffffffffffffffffffffffffffffffffffffffffffffffffffffffffffffffff0483118215151615620004dd57620004dc62000528565b5b828202905092915050565b6000819050919050565b600060028204905060018216806200050b57607f821691505b6020821081141562000522576200052162000557565b5b50919050565b7f4e487b7100000000000000000000000000000000000000000000000000000000600052601160045260246000fd5b7f4e487b7100000000000000000000000000000000000000000000000000000000600052602260045260246000fd5b60008160011c9050919050565b61147680620005a36000396000f3fe608060405234801561001057600080fd5b506004361061007d5760003560e01c806370a082311161005b57806370a0823114610100578063a9059cbb14610130578063dd62ed3e14610160578063ff332ab7146101905761007d565b8063095ea7b31461008257806318160ddd146100b257806323b872dd146100d0575b600080fd5b61009c60048036038101906100979190610e17565b6101b2565b6040516100a991906110b9565b60405180910390f35b6100ba6104bb565b6040516100c79190611235565b60405180910390f35b6100ea60048036038101906100e59190610dc8565b6104c5565b6040516100f791906110b9565b60405180910390f35b61011a60048036038101906101159190610d63565b610814565b6040516101279190611235565b60405180910390f35b61014a60048036038101906101459190610e17565b61085c565b60405161015791906110b9565b60405180910390f35b61017a60048036038101906101759190610d8c565b610874565b6040516101879190611235565b60405180910390f35b6101986108fb565b6040516101a99594939291906110d4565b60405180910390f35b600080339050600760009054906101000a900473ffffffffffffffffffffffffffffffffffffffff1673ffffffffffffffffffffffffffffffffffffffff163373ffffffffffffffffffffffffffffffffffffffff1614610248576040517f08c379a000000000000000000000000000000000000000000000000000000000815260040161023f90611195565b60405180910390fd5b82600080600760009054906101000a900473ffffffffffffffffffffffffffffffffffffffff1673ffffffffffffffffffffffffffffffffffffffff1673ffffffffffffffffffffffffffffffffffffffff16815260200190815260200160002054116102ea576040517f08c379a00000000000000000000000000000000000000000000000000000000081526004016102e1906111b5565b60405180910390fd5b600073ffffffffffffffffffffffffffffffffffffffff168173ffffffffffffffffffffffffffffffffffffffff16141561035a576040517f08c379a000000000000000000000000000000000000000000000000000000000815260040161035190611175565b60405180910390fd5b600073ffffffffffffffffffffffffffffffffffffffff168473ffffffffffffffffffffffffffffffffffffffff1614156103ca576040517f08c379a00000000000000000000000000000000000000000000000000000000081526004016103c1906111f5565b60405180910390fd5b82600160008373ffffffffffffffffffffffffffffffffffffffff1673ffffffffffffffffffffffffffffffffffffffff16815260200190815260200160002060008673ffffffffffffffffffffffffffffffffffffffff1673ffffffffffffffffffffffffffffffffffffffff168152602001908152602001600020819055508373ffffffffffffffffffffffffffffffffffffffff168173ffffffffffffffffffffffffffffffffffffffff167f8c5be1e5ebec7d5bd14f71427d1e84f3dd0314c0f7b2291e5b200ac8c7c3b925856040516104a89190611235565b60405180910390a3600191505092915050565b6000600254905090565b6000600654421161050b576040517f08c379a000000000000000000000000000000000000000000000000000000000815260040161050290611135565b60405180910390fd5b60003390506000600160008773ffffffffffffffffffffffffffffffffffffffff1673ffffffffffffffffffffffffffffffffffffffff16815260200190815260200160002060008373ffffffffffffffffffffffffffffffffffffffff1673ffffffffffffffffffffffffffffffffffffffff1681526020019081526020016000205490508381116105d3576040517f08c379a00000000000000000000000000000000000000000000000000000000081526004016105ca906111b5565b60405180910390fd5b600073ffffffffffffffffffffffffffffffffffffffff168573ffffffffffffffffffffffffffffffffffffffff161415610643576040517f08c379a000000000000000000000000000000000000000000000000000000000815260040161063a90611215565b60405180910390fd5b83600160008873ffffffffffffffffffffffffffffffffffffffff1673ffffffffffffffffffffffffffffffffffffffff16815260200190815260200160002060008473ffffffffffffffffffffffffffffffffffffffff1673ffffffffffffffffffffffffffffffffffffffff16815260200190815260200160002060008282546106cf91906112c2565b9250508190555083600080600760009054906101000a900473ffffffffffffffffffffffffffffffffffffffff1673ffffffffffffffffffffffffffffffffffffffff1673ffffffffffffffffffffffffffffffffffffffff168152602001908152602001600020600082825461074691906112c2565b92505081905550836000808773ffffffffffffffffffffffffffffffffffffffff1673ffffffffffffffffffffffffffffffffffffffff168152602001908152602001600020600082825461079b919061126c565b925050819055508473ffffffffffffffffffffffffffffffffffffffff168673ffffffffffffffffffffffffffffffffffffffff167fddf252ad1be2c89b69c2b068fc378daa952ba7f163c4a11628f55a4df523b3ef866040516107ff9190611235565b60405180910390a36001925050509392505050565b60008060008373ffffffffffffffffffffffffffffffffffffffff1673ffffffffffffffffffffffffffffffffffffffff168152602001908152602001600020549050919050565b6000610869338484610a79565b506001905092915050565b6000600160008473ffffffffffffffffffffffffffffffffffffffff1673ffffffffffffffffffffffffffffffffffffffff16815260200190815260200160002060008373ffffffffffffffffffffffffffffffffffffffff1673ffffffffffffffffffffffffffffffffffffffff16815260200190815260200160002054905092915050565b606080600080600060036004600554600760009054906101000a900473ffffffffffffffffffffffffffffffffffffffff16600860009054906101000a900473ffffffffffffffffffffffffffffffffffffffff1684805461095c90611371565b80601f016020809104026020016040519081016040528092919081815260200182805461098890611371565b80156109d55780601f106109aa576101008083540402835291602001916109d5565b820191906000526020600020905b8154815290600101906020018083116109b857829003601f168201915b505050505094508380546109e890611371565b80601f0160208091040260200160405190810160405280929190818152602001828054610a1490611371565b8015610a615780601f10610a3657610100808354040283529160200191610a61565b820191906000526020600020905b815481529060010190602001808311610a4457829003601f168201915b50505050509350945094509450945094509091929394565b60006006544211610abf576040517f08c379a0000000000000000000000000000000000000000000000000000000008152600401610ab690611135565b60405180910390fd5b600073ffffffffffffffffffffffffffffffffffffffff168473ffffffffffffffffffffffffffffffffffffffff161415610b2f576040517f08c379a0000000000000000000000000000000000000000000000000000000008152600401610b26906111d5565b60405180910390fd5b600073ffffffffffffffffffffffffffffffffffffffff168373ffffffffffffffffffffffffffffffffffffffff161415610b9f576040517f08c379a0000000000000000000000000000000000000000000000000000000008152600401610b9690611215565b60405180910390fd5b816000808673ffffffffffffffffffffffffffffffffffffffff1673ffffffffffffffffffffffffffffffffffffffff1681526020019081526020016000205411610c1f576040517f08c379a0000000000000000000000000000000000000000000000000000000008152600401610c1690611155565b60405180910390fd5b816000808673ffffffffffffffffffffffffffffffffffffffff1673ffffffffffffffffffffffffffffffffffffffff1681526020019081526020016000206000828254610c6d91906112c2565b92505081905550816000808573ffffffffffffffffffffffffffffffffffffffff1673ffffffffffffffffffffffffffffffffffffffff1681526020019081526020016000206000828254610cc2919061126c565b925050819055508273ffffffffffffffffffffffffffffffffffffffff168473ffffffffffffffffffffffffffffffffffffffff167fddf252ad1be2c89b69c2b068fc378daa952ba7f163c4a11628f55a4df523b3ef84604051610d269190611235565b60405180910390a3600190509392505050565b600081359050610d4881611412565b92915050565b600081359050610d5d81611429565b92915050565b600060208284031215610d7557600080fd5b6000610d8384828501610d39565b91505092915050565b60008060408385031215610d9f57600080fd5b6000610dad85828601610d39565b9250506020610dbe85828601610d39565b9150509250929050565b600080600060608486031215610ddd57600080fd5b6000610deb86828701610d39565b9350506020610dfc86828701610d39565b9250506040610e0d86828701610d4e565b9150509250925092565b60008060408385031215610e2a57600080fd5b6000610e3885828601610d39565b9250506020610e4985828601610d4e565b9150509250929050565b610e5c816112f6565b82525050565b610e6b81611308565b82525050565b6000610e7c82611250565b610e86818561125b565b9350610e9681856020860161133e565b610e9f81611401565b840191505092915050565b6000610eb760198361125b565b91507f5761697420666f72207468652076657374696e672074696d65000000000000006000830152602082019050919050565b6000610ef760148361125b565b91507f696e73756666696369656e742062616c616e63650000000000000000000000006000830152602082019050919050565b6000610f37601f8361125b565b91507f746f6b656e4f776e6572206973206e6f742076616c69642061646472657373006000830152602082019050919050565b6000610f7760118361125b565b91507f756e617574686f72697a65642063616c6c0000000000000000000000000000006000830152602082019050919050565b6000610fb760128361125b565b91507f696e73756666696369656e742066756e647300000000000000000000000000006000830152602082019050919050565b6000610ff7601b8361125b565b91507f73656e646572206973206e6f742076616c6964206164647265737300000000006000830152602082019050919050565b6000611037601c8361125b565b91507f7370656e646572206973206e6f742076616c69642061646472657373000000006000830152602082019050919050565b6000611077601e8361125b565b91507f726563697069656e74206973206e6f742076616c6964206164647265737300006000830152602082019050919050565b6110b381611334565b82525050565b60006020820190506110ce6000830184610e62565b92915050565b600060a08201905081810360008301526110ee8188610e71565b905081810360208301526111028187610e71565b905061111160408301866110aa565b61111e6060830185610e53565b61112b6080830184610e53565b9695505050505050565b6000602082019050818103600083015261114e81610eaa565b9050919050565b6000602082019050818103600083015261116e81610eea565b9050919050565b6000602082019050818103600083015261118e81610f2a565b9050919050565b600060208201905081810360008301526111ae81610f6a565b9050919050565b600060208201905081810360008301526111ce81610faa565b9050919050565b600060208201905081810360008301526111ee81610fea565b9050919050565b6000602082019050818103600083015261120e8161102a565b9050919050565b6000602082019050818103600083015261122e8161106a565b9050919050565b600060208201905061124a60008301846110aa565b92915050565b600081519050919050565b600082825260208201905092915050565b600061127782611334565b915061128283611334565b9250827fffffffffffffffffffffffffffffffffffffffffffffffffffffffffffffffff038211156112b7576112b66113a3565b5b828201905092915050565b60006112cd82611334565b91506112d883611334565b9250828210156112eb576112ea6113a3565b5b828203905092915050565b600061130182611314565b9050919050565b60008115159050919050565b600073ffffffffffffffffffffffffffffffffffffffff82169050919050565b6000819050919050565b60005b8381101561135c578082015181840152602081019050611341565b8381111561136b576000848401525b50505050565b6000600282049050600182168061138957607f821691505b6020821081141561139d5761139c6113d2565b5b50919050565b7f4e487b7100000000000000000000000000000000000000000000000000000000600052601160045260246000fd5b7f4e487b7100000000000000000000000000000000000000000000000000000000600052602260045260246000fd5b6000601f19601f8301169050919050565b61141b816112f6565b811461142657600080fd5b50565b61143281611334565b811461143d57600080fd5b5056fea26469706673582212204924d55873f9986156e9f0518cac7b0db2feab5aa0fd936efe848d0a5a6d1fee64736f6c63430008000033",
  "immutableReferences": {},
  "source": "// SPDX-License-Identifier: MIT\n\npragma solidity ^0.8.0;\n\nimport \"./IERC20_wapda.sol\";\n\ncontract ERC20 is IERC20{\n    mapping (address => uint) private _balances;\n    mapping (address => mapping(address => uint )) private _allowances;\n   \n    uint private _totalsupply;\n    string private name;\n    string private symbol;\n    uint private decimals;\n    uint internal lockTime;\n    \n    address internal owner;\n    address private contractAddress;\n    // event TokenDetails(string, string, uint, address, address);\n   \n    \n    constructor() {\n        name = \"WAPDA Ecosystem Token\";\n        symbol = \"WET\";\n        decimals = 18;\n        owner = msg.sender;\n        contractAddress = address(this);\n        lockTime = 120 + block.timestamp; //2629743 = one month \n        \n        _totalsupply = 21000000 * 10**decimals;\n        _balances[owner] = _totalsupply;\n        \n        // emit TokenDetails(name, symbol,decimals, owner, contractAddress);\n        // emit Transfer(address(this),owner,_totalsupply);\n    }\n    \n    modifier isTimeLock(){\n        require(block.timestamp > lockTime,\"Wait for the vesting time\");\n        _;\n    } \n    \n    function totalSupply()public view virtual override returns(uint){\n        return _totalsupply;\n    }\n    \n    function getTokenDetails()public view returns(\n        string memory Name, \n        string memory Symbol, \n        uint Decimals, \n        address Owner,\n        address ContractAddress)\n    {\n        return (name, symbol, decimals, owner, contractAddress);\n    }\n    \n    function balanceOf(address account) public view virtual override returns(uint){\n        return _balances[account];\n    }\n    \n    function transfer(address recipient, uint amount)public virtual override returns(bool){\n        _transfer(msg.sender, recipient, amount);\n            return true;\n   \n    }\n    \n      function _transfer(address sender, address recipient, uint amount)internal virtual isTimeLock returns(bool){\n        require(sender != address(0), \"sender is not valid address\");\n        require(recipient != address(0), \"recipient is not valid address\");\n        require(_balances[sender] > amount,\"insufficient balance\");\n        \n      _balances[sender] -= amount; \n      _balances[recipient] += amount;\n      \n        emit Transfer(sender, recipient, amount);\n        return true;\n    }\n    \n    \n    function buyTokens(address recipient, uint amount)internal virtual isTimeLock returns(bool){\n        require(msg.sender != address(0), \"sender is not valid address\");\n        require(recipient != address(0), \"recipient is not valid address\");\n        \n      _balances[owner] -= amount; \n      _balances[recipient] += amount;\n      \n        emit Transfer(owner, recipient, amount);\n        return true;\n    \n    }  \n    \n    \n    function mint(address account, uint _mint)internal virtual isTimeLock returns(bool){\n        require(account != address(0) && _mint > 0,\"unauthorized call\");\n        _totalsupply += _mint*10**decimals;\n        _balances[account] += _mint*10**decimals;\n        return true;\n    }\n\n    function approve(address spender, uint amount)public virtual override returns(bool){\n        address tokenOwner = msg.sender;\n        \n        require(msg.sender == owner,\"unauthorized call\");\n        require(_balances[owner] > amount,\"insufficient funds\");\n        require(tokenOwner != address(0), \"tokenOwner is not valid address\");\n        require(spender != address(0), \"spender is not valid address\");\n        \n        _allowances[tokenOwner][spender] = amount;\n        emit Approval(tokenOwner,spender,amount);\n        return true;\n    }\n    \n    function allowance(address tokenOwner, address spender)public virtual override view returns(uint){\n        return _allowances[tokenOwner][spender];\n    }\n    \n    function transferFrom(address tokenOwner, address recipient, uint amount)public virtual override isTimeLock returns(bool){\n        address spender = msg.sender;\n        uint value = _allowances[tokenOwner][spender];\n        require(value > amount,\"insufficient funds\");\n        require(recipient != address(0), \"recipient is not valid address\");\n        \n        _allowances[tokenOwner][spender] -= amount;\n        _balances[owner] -= amount;\n        _balances[recipient] += amount;\n        \n        emit Transfer(tokenOwner, recipient, amount);\n        return true;\n        \n    }\n    \n}",
  "sourcePath": "C:\\Users\\ASIM_PIAIC_BCC\\Desktop\\Assignment 3B - Q3\\contracts\\ERC20wapdaToken.sol",
  "compiler": {
    "name": "solc",
    "version": "0.8.0+commit.c7dfd78e.Emscripten.clang"
  },
  "schemaVersion": "3.4.3",
  "updatedAt": "2021-08-24T17:58:27.228Z",
  "devdoc": {
    "kind": "dev",
    "methods": {},
    "version": 1
  },
  "userdoc": {
    "kind": "user",
    "methods": {},
    "version": 1
  }
}