{
  "contractName": "tokenSale",
  "abi": [
    {
      "inputs": [],
      "stateMutability": "nonpayable",
      "type": "constructor"
    },
    {
      "anonymous": false,
      "inputs": [
        {
          "indexed": true,
          "internalType": "address",
          "name": "owner",
          "type": "address"
        },
        {
          "indexed": true,
          "internalType": "address",
          "name": "spender",
          "type": "address"
        },
        {
          "indexed": false,
          "internalType": "uint256",
          "name": "value",
          "type": "uint256"
        }
      ],
      "name": "Approval",
      "type": "event"
    },
    {
      "anonymous": false,
      "inputs": [
        {
          "indexed": true,
          "internalType": "address",
          "name": "from",
          "type": "address"
        },
        {
          "indexed": true,
          "internalType": "address",
          "name": "to",
          "type": "address"
        },
        {
          "indexed": false,
          "internalType": "uint256",
          "name": "value",
          "type": "uint256"
        }
      ],
      "name": "Transfer",
      "type": "event"
    },
    {
      "stateMutability": "payable",
      "type": "fallback",
      "payable": true
    },
    {
      "inputs": [
        {
          "internalType": "address",
          "name": "tokenOwner",
          "type": "address"
        },
        {
          "internalType": "address",
          "name": "spender",
          "type": "address"
        }
      ],
      "name": "allowance",
      "outputs": [
        {
          "internalType": "uint256",
          "name": "",
          "type": "uint256"
        }
      ],
      "stateMutability": "view",
      "type": "function",
      "constant": true
    },
    {
      "inputs": [
        {
          "internalType": "address",
          "name": "spender",
          "type": "address"
        },
        {
          "internalType": "uint256",
          "name": "amount",
          "type": "uint256"
        }
      ],
      "name": "approve",
      "outputs": [
        {
          "internalType": "bool",
          "name": "",
          "type": "bool"
        }
      ],
      "stateMutability": "nonpayable",
      "type": "function"
    },
    {
      "inputs": [
        {
          "internalType": "address",
          "name": "account",
          "type": "address"
        }
      ],
      "name": "balanceOf",
      "outputs": [
        {
          "internalType": "uint256",
          "name": "",
          "type": "uint256"
        }
      ],
      "stateMutability": "view",
      "type": "function",
      "constant": true
    },
    {
      "inputs": [],
      "name": "fundRais",
      "outputs": [
        {
          "internalType": "uint256",
          "name": "",
          "type": "uint256"
        }
      ],
      "stateMutability": "view",
      "type": "function",
      "constant": true
    },
    {
      "inputs": [],
      "name": "getTokenDetails",
      "outputs": [
        {
          "internalType": "string",
          "name": "Name",
          "type": "string"
        },
        {
          "internalType": "string",
          "name": "Symbol",
          "type": "string"
        },
        {
          "internalType": "uint256",
          "name": "Decimals",
          "type": "uint256"
        },
        {
          "internalType": "address",
          "name": "Owner",
          "type": "address"
        },
        {
          "internalType": "address",
          "name": "ContractAddress",
          "type": "address"
        }
      ],
      "stateMutability": "view",
      "type": "function",
      "constant": true
    },
    {
      "inputs": [],
      "name": "rate",
      "outputs": [
        {
          "internalType": "uint256",
          "name": "",
          "type": "uint256"
        }
      ],
      "stateMutability": "view",
      "type": "function",
      "constant": true
    },
    {
      "inputs": [],
      "name": "totalSupply",
      "outputs": [
        {
          "internalType": "uint256",
          "name": "",
          "type": "uint256"
        }
      ],
      "stateMutability": "view",
      "type": "function",
      "constant": true
    },
    {
      "inputs": [
        {
          "internalType": "address",
          "name": "recipient",
          "type": "address"
        },
        {
          "internalType": "uint256",
          "name": "amount",
          "type": "uint256"
        }
      ],
      "name": "transfer",
      "outputs": [
        {
          "internalType": "bool",
          "name": "",
          "type": "bool"
        }
      ],
      "stateMutability": "nonpayable",
      "type": "function"
    },
    {
      "inputs": [
        {
          "internalType": "address",
          "name": "tokenOwner",
          "type": "address"
        },
        {
          "internalType": "address",
          "name": "recipient",
          "type": "address"
        },
        {
          "internalType": "uint256",
          "name": "amount",
          "type": "uint256"
        }
      ],
      "name": "transferFrom",
      "outputs": [
        {
          "internalType": "bool",
          "name": "",
          "type": "bool"
        }
      ],
      "stateMutability": "nonpayable",
      "type": "function"
    },
    {
      "stateMutability": "payable",
      "type": "receive",
      "payable": true
    },
    {
      "inputs": [],
      "name": "maxSupplyCap",
      "outputs": [
        {
          "internalType": "uint256",
          "name": "",
          "type": "uint256"
        }
      ],
      "stateMutability": "view",
      "type": "function",
      "constant": true
    },
    {
      "inputs": [
        {
          "internalType": "address",
          "name": "account",
          "type": "address"
        },
        {
          "internalType": "uint256",
          "name": "_mint",
          "type": "uint256"
        }
      ],
      "name": "minting",
      "outputs": [
        {
          "internalType": "bool",
          "name": "",
          "type": "bool"
        }
      ],
      "stateMutability": "nonpayable",
      "type": "function"
    },
    {
      "inputs": [
        {
          "internalType": "uint256",
          "name": "_newRate",
          "type": "uint256"
        }
      ],
      "name": "updateTokenRate",
      "outputs": [
        {
          "internalType": "uint256",
          "name": "newRate",
          "type": "uint256"
        }
      ],
      "stateMutability": "nonpayable",
      "type": "function"
    },
    {
      "inputs": [
        {
          "internalType": "address",
          "name": "account",
          "type": "address"
        }
      ],
      "name": "buyToken",
      "outputs": [
        {
          "internalType": "uint256",
          "name": "FundsRais",
          "type": "uint256"
        }
      ],
      "stateMutability": "payable",
      "type": "function",
      "payable": true
    }
  ],
  "bytecode": "0x60806040523480156200001157600080fd5b506040518060400160405280601581526020017f57415044412045636f73797374656d20546f6b656e0000000000000000000000815250600390805190602001906200005f929190620001fc565b506040518060400160405280600381526020017f574554000000000000000000000000000000000000000000000000000000000081525060049080519060200190620000ad929190620001fc565b50601260058190555033600760006101000a81548173ffffffffffffffffffffffffffffffffffffffff021916908373ffffffffffffffffffffffffffffffffffffffff16021790555030600860006101000a81548173ffffffffffffffffffffffffffffffffffffffff021916908373ffffffffffffffffffffffffffffffffffffffff160217905550426078620001479190620002ac565b600681905550600554600a6200015e919062000364565b6301406f406200016f9190620004a1565b600281905550600254600080600760009054906101000a900473ffffffffffffffffffffffffffffffffffffffff1673ffffffffffffffffffffffffffffffffffffffff1673ffffffffffffffffffffffffffffffffffffffff168152602001908152602001600020819055506a295be96e64066972000000600b819055506064600981905550620005ad565b8280546200020a906200050c565b90600052602060002090601f0160209004810192826200022e57600085556200027a565b82601f106200024957805160ff19168380011785556200027a565b828001600101855582156200027a579182015b82811115620002795782518255916020019190600101906200025c565b5b5090506200028991906200028d565b5090565b5b80821115620002a85760008160009055506001016200028e565b5090565b6000620002b98262000502565b9150620002c68362000502565b9250827fffffffffffffffffffffffffffffffffffffffffffffffffffffffffffffffff03821115620002fe57620002fd62000542565b5b828201905092915050565b6000808291508390505b60018511156200035b5780860481111562000333576200033262000542565b5b6001851615620003435780820291505b80810290506200035385620005a0565b945062000313565b94509492505050565b6000620003718262000502565b91506200037e8362000502565b9250620003ad7fffffffffffffffffffffffffffffffffffffffffffffffffffffffffffffffff8484620003b5565b905092915050565b600082620003c757600190506200049a565b81620003d757600090506200049a565b8160018114620003f05760028114620003fb5762000431565b60019150506200049a565b60ff84111562000410576200040f62000542565b5b8360020a9150848211156200042a576200042962000542565b5b506200049a565b5060208310610133831016604e8410600b84101617156200046b5782820a90508381111562000465576200046462000542565b5b6200049a565b6200047a848484600162000309565b9250905081840481111562000494576200049362000542565b5b81810290505b9392505050565b6000620004ae8262000502565b9150620004bb8362000502565b9250817fffffffffffffffffffffffffffffffffffffffffffffffffffffffffffffffff0483118215151615620004f757620004f662000542565b5b828202905092915050565b6000819050919050565b600060028204905060018216806200052557607f821691505b602082108114156200053c576200053b62000571565b5b50919050565b7f4e487b7100000000000000000000000000000000000000000000000000000000600052601160045260246000fd5b7f4e487b7100000000000000000000000000000000000000000000000000000000600052602260045260246000fd5b60008160011c9050919050565b6121e180620005bd6000396000f3fe6080604052600436106100c65760003560e01c806370a082311161007f578063a9059cbb11610059578063a9059cbb146102f7578063c6c85ca514610334578063dd62ed3e14610371578063ff332ab7146103ae576100f9565b806370a082311461025f5780637e72fb521461029c5780639d70902f146102cc576100f9565b8063095ea7b31461012757806310782cb71461016457806318160ddd1461018f578063233ebc8b146101ba57806323b872dd146101f75780632c4e722e14610234576100f9565b366100f9576100f6600760009054906101000a900473ffffffffffffffffffffffffffffffffffffffff166103dd565b50005b610124600760009054906101000a900473ffffffffffffffffffffffffffffffffffffffff166103dd565b50005b34801561013357600080fd5b5061014e6004803603810190610149919061177b565b610536565b60405161015b9190611bac565b60405180910390f35b34801561017057600080fd5b5061017961083f565b6040516101869190611dc8565b60405180910390f35b34801561019b57600080fd5b506101a4610845565b6040516101b19190611dc8565b60405180910390f35b3480156101c657600080fd5b506101e160048036038101906101dc919061177b565b61084f565b6040516101ee9190611bac565b60405180910390f35b34801561020357600080fd5b5061021e6004803603810190610219919061172c565b610944565b60405161022b9190611bac565b60405180910390f35b34801561024057600080fd5b50610249610c93565b6040516102569190611dc8565b60405180910390f35b34801561026b57600080fd5b50610286600480360381019061028191906116c7565b610c99565b6040516102939190611dc8565b60405180910390f35b6102b660048036038101906102b191906116c7565b6103dd565b6040516102c39190611dc8565b60405180910390f35b3480156102d857600080fd5b506102e1610ce1565b6040516102ee9190611dc8565b60405180910390f35b34801561030357600080fd5b5061031e6004803603810190610319919061177b565b610ceb565b60405161032b9190611bac565b60405180910390f35b34801561034057600080fd5b5061035b600480360381019061035691906117b7565b610d03565b6040516103689190611dc8565b60405180910390f35b34801561037d57600080fd5b50610398600480360381019061039391906116f0565b610de9565b6040516103a59190611dc8565b60405180910390f35b3480156103ba57600080fd5b506103c3610e70565b6040516103d4959493929190611bc7565b60405180910390f35b600080600954346103ee9190611fc6565b905034600a546103fe9190611dff565b600a81905550600073ffffffffffffffffffffffffffffffffffffffff168373ffffffffffffffffffffffffffffffffffffffff161415610474576040517f08c379a000000000000000000000000000000000000000000000000000000000815260040161046b90611d88565b60405180910390fd5b600034116104b7576040517f08c379a00000000000000000000000000000000000000000000000000000000081526004016104ae90611ca8565b60405180910390fd5b6104c18382610fee565b50600760009054906101000a900473ffffffffffffffffffffffffffffffffffffffff1673ffffffffffffffffffffffffffffffffffffffff166108fc349081150290604051600060405180830381858888f1935050505015801561052a573d6000803e3d6000fd5b50600a54915050919050565b600080339050600760009054906101000a900473ffffffffffffffffffffffffffffffffffffffff1673ffffffffffffffffffffffffffffffffffffffff163373ffffffffffffffffffffffffffffffffffffffff16146105cc576040517f08c379a00000000000000000000000000000000000000000000000000000000081526004016105c390611d08565b60405180910390fd5b82600080600760009054906101000a900473ffffffffffffffffffffffffffffffffffffffff1673ffffffffffffffffffffffffffffffffffffffff1673ffffffffffffffffffffffffffffffffffffffff168152602001908152602001600020541161066e576040517f08c379a000000000000000000000000000000000000000000000000000000000815260040161066590611d28565b60405180910390fd5b600073ffffffffffffffffffffffffffffffffffffffff168173ffffffffffffffffffffffffffffffffffffffff1614156106de576040517f08c379a00000000000000000000000000000000000000000000000000000000081526004016106d590611ce8565b60405180910390fd5b600073ffffffffffffffffffffffffffffffffffffffff168473ffffffffffffffffffffffffffffffffffffffff16141561074e576040517f08c379a000000000000000000000000000000000000000000000000000000000815260040161074590611d68565b60405180910390fd5b82600160008373ffffffffffffffffffffffffffffffffffffffff1673ffffffffffffffffffffffffffffffffffffffff16815260200190815260200160002060008673ffffffffffffffffffffffffffffffffffffffff1673ffffffffffffffffffffffffffffffffffffffff168152602001908152602001600020819055508373ffffffffffffffffffffffffffffffffffffffff168173ffffffffffffffffffffffffffffffffffffffff167f8c5be1e5ebec7d5bd14f71427d1e84f3dd0314c0f7b2291e5b200ac8c7c3b9258560405161082c9190611dc8565b60405180910390a3600191505092915050565b600a5481565b6000600254905090565b60008073ffffffffffffffffffffffffffffffffffffffff168373ffffffffffffffffffffffffffffffffffffffff1614156108c0576040517f08c379a00000000000000000000000000000000000000000000000000000000081526004016108b790611c68565b60405180910390fd5b6108c8610ce1565b670de0b6b3a7640000836108dc9190611fc6565b6108e4610845565b6108ee9190611dff565b111561092f576040517f08c379a000000000000000000000000000000000000000000000000000000000815260040161092690611c88565b60405180910390fd5b6109398383611271565b506001905092915050565b6000600654421161098a576040517f08c379a000000000000000000000000000000000000000000000000000000000815260040161098190611c28565b60405180910390fd5b60003390506000600160008773ffffffffffffffffffffffffffffffffffffffff1673ffffffffffffffffffffffffffffffffffffffff16815260200190815260200160002060008373ffffffffffffffffffffffffffffffffffffffff1673ffffffffffffffffffffffffffffffffffffffff168152602001908152602001600020549050838111610a52576040517f08c379a0000000000000000000000000000000000000000000000000000000008152600401610a4990611d28565b60405180910390fd5b600073ffffffffffffffffffffffffffffffffffffffff168573ffffffffffffffffffffffffffffffffffffffff161415610ac2576040517f08c379a0000000000000000000000000000000000000000000000000000000008152600401610ab990611da8565b60405180910390fd5b83600160008873ffffffffffffffffffffffffffffffffffffffff1673ffffffffffffffffffffffffffffffffffffffff16815260200190815260200160002060008473ffffffffffffffffffffffffffffffffffffffff1673ffffffffffffffffffffffffffffffffffffffff1681526020019081526020016000206000828254610b4e9190612020565b9250508190555083600080600760009054906101000a900473ffffffffffffffffffffffffffffffffffffffff1673ffffffffffffffffffffffffffffffffffffffff1673ffffffffffffffffffffffffffffffffffffffff1681526020019081526020016000206000828254610bc59190612020565b92505081905550836000808773ffffffffffffffffffffffffffffffffffffffff1673ffffffffffffffffffffffffffffffffffffffff1681526020019081526020016000206000828254610c1a9190611dff565b925050819055508473ffffffffffffffffffffffffffffffffffffffff168673ffffffffffffffffffffffffffffffffffffffff167fddf252ad1be2c89b69c2b068fc378daa952ba7f163c4a11628f55a4df523b3ef86604051610c7e9190611dc8565b60405180910390a36001925050509392505050565b60095481565b60008060008373ffffffffffffffffffffffffffffffffffffffff1673ffffffffffffffffffffffffffffffffffffffff168152602001908152602001600020549050919050565b6000600b54905090565b6000610cf83384846113dd565b506001905092915050565b60003373ffffffffffffffffffffffffffffffffffffffff16600760009054906101000a900473ffffffffffffffffffffffffffffffffffffffff1673ffffffffffffffffffffffffffffffffffffffff1614610d95576040517f08c379a0000000000000000000000000000000000000000000000000000000008152600401610d8c90611d08565b60405180910390fd5b60008211610dd8576040517f08c379a0000000000000000000000000000000000000000000000000000000008152600401610dcf90611c48565b60405180910390fd5b816009819055506009549050919050565b6000600160008473ffffffffffffffffffffffffffffffffffffffff1673ffffffffffffffffffffffffffffffffffffffff16815260200190815260200160002060008373ffffffffffffffffffffffffffffffffffffffff1673ffffffffffffffffffffffffffffffffffffffff16815260200190815260200160002054905092915050565b606080600080600060036004600554600760009054906101000a900473ffffffffffffffffffffffffffffffffffffffff16600860009054906101000a900473ffffffffffffffffffffffffffffffffffffffff16848054610ed1906120cf565b80601f0160208091040260200160405190810160405280929190818152602001828054610efd906120cf565b8015610f4a5780601f10610f1f57610100808354040283529160200191610f4a565b820191906000526020600020905b815481529060010190602001808311610f2d57829003601f168201915b50505050509450838054610f5d906120cf565b80601f0160208091040260200160405190810160405280929190818152602001828054610f89906120cf565b8015610fd65780601f10610fab57610100808354040283529160200191610fd6565b820191906000526020600020905b815481529060010190602001808311610fb957829003601f168201915b50505050509350945094509450945094509091929394565b60006006544211611034576040517f08c379a000000000000000000000000000000000000000000000000000000000815260040161102b90611c28565b60405180910390fd5b600073ffffffffffffffffffffffffffffffffffffffff163373ffffffffffffffffffffffffffffffffffffffff1614156110a4576040517f08c379a000000000000000000000000000000000000000000000000000000000815260040161109b90611d48565b60405180910390fd5b600073ffffffffffffffffffffffffffffffffffffffff168373ffffffffffffffffffffffffffffffffffffffff161415611114576040517f08c379a000000000000000000000000000000000000000000000000000000000815260040161110b90611da8565b60405180910390fd5b81600080600760009054906101000a900473ffffffffffffffffffffffffffffffffffffffff1673ffffffffffffffffffffffffffffffffffffffff1673ffffffffffffffffffffffffffffffffffffffff16815260200190815260200160002060008282546111849190612020565b92505081905550816000808573ffffffffffffffffffffffffffffffffffffffff1673ffffffffffffffffffffffffffffffffffffffff16815260200190815260200160002060008282546111d99190611dff565b925050819055508273ffffffffffffffffffffffffffffffffffffffff16600760009054906101000a900473ffffffffffffffffffffffffffffffffffffffff1673ffffffffffffffffffffffffffffffffffffffff167fddf252ad1be2c89b69c2b068fc378daa952ba7f163c4a11628f55a4df523b3ef8460405161125f9190611dc8565b60405180910390a36001905092915050565b600060065442116112b7576040517f08c379a00000000000000000000000000000000000000000000000000000000081526004016112ae90611c28565b60405180910390fd5b600073ffffffffffffffffffffffffffffffffffffffff168373ffffffffffffffffffffffffffffffffffffffff16141580156112f45750600082115b611333576040517f08c379a000000000000000000000000000000000000000000000000000000000815260040161132a90611d08565b60405180910390fd5b600554600a6113429190611ea8565b8261134d9190611fc6565b6002600082825461135e9190611dff565b92505081905550600554600a6113749190611ea8565b8261137f9190611fc6565b6000808573ffffffffffffffffffffffffffffffffffffffff1673ffffffffffffffffffffffffffffffffffffffff16815260200190815260200160002060008282546113cc9190611dff565b925050819055506001905092915050565b60006006544211611423576040517f08c379a000000000000000000000000000000000000000000000000000000000815260040161141a90611c28565b60405180910390fd5b600073ffffffffffffffffffffffffffffffffffffffff168473ffffffffffffffffffffffffffffffffffffffff161415611493576040517f08c379a000000000000000000000000000000000000000000000000000000000815260040161148a90611d48565b60405180910390fd5b600073ffffffffffffffffffffffffffffffffffffffff168373ffffffffffffffffffffffffffffffffffffffff161415611503576040517f08c379a00000000000000000000000000000000000000000000000000000000081526004016114fa90611da8565b60405180910390fd5b816000808673ffffffffffffffffffffffffffffffffffffffff1673ffffffffffffffffffffffffffffffffffffffff1681526020019081526020016000205411611583576040517f08c379a000000000000000000000000000000000000000000000000000000000815260040161157a90611cc8565b60405180910390fd5b816000808673ffffffffffffffffffffffffffffffffffffffff1673ffffffffffffffffffffffffffffffffffffffff16815260200190815260200160002060008282546115d19190612020565b92505081905550816000808573ffffffffffffffffffffffffffffffffffffffff1673ffffffffffffffffffffffffffffffffffffffff16815260200190815260200160002060008282546116269190611dff565b925050819055508273ffffffffffffffffffffffffffffffffffffffff168473ffffffffffffffffffffffffffffffffffffffff167fddf252ad1be2c89b69c2b068fc378daa952ba7f163c4a11628f55a4df523b3ef8460405161168a9190611dc8565b60405180910390a3600190509392505050565b6000813590506116ac8161217d565b92915050565b6000813590506116c181612194565b92915050565b6000602082840312156116d957600080fd5b60006116e78482850161169d565b91505092915050565b6000806040838503121561170357600080fd5b60006117118582860161169d565b92505060206117228582860161169d565b9150509250929050565b60008060006060848603121561174157600080fd5b600061174f8682870161169d565b93505060206117608682870161169d565b9250506040611771868287016116b2565b9150509250925092565b6000806040838503121561178e57600080fd5b600061179c8582860161169d565b92505060206117ad858286016116b2565b9150509250929050565b6000602082840312156117c957600080fd5b60006117d7848285016116b2565b91505092915050565b6117e981612054565b82525050565b6117f881612066565b82525050565b600061180982611de3565b6118138185611dee565b935061182381856020860161209c565b61182c8161215f565b840191505092915050565b6000611844601983611dee565b91507f5761697420666f72207468652076657374696e672074696d65000000000000006000830152602082019050919050565b6000611884601583611dee565b91507f72617465206d757374206e6f74206265205a65726f00000000000000000000006000830152602082019050919050565b60006118c4601d83611dee565b91507f6163636f756e742073686f756c64206e6f74206265207a656f722061630000006000830152602082019050919050565b6000611904601883611dee565b91507f546f6b656e43617065643a2043617020657863656564656400000000000000006000830152602082019050919050565b6000611944602783611dee565b91507f6d696e696d756d207075726368617365206d757374206e6f74206265205a657260008301527f6f206574686572000000000000000000000000000000000000000000000000006020830152604082019050919050565b60006119aa601483611dee565b91507f696e73756666696369656e742062616c616e63650000000000000000000000006000830152602082019050919050565b60006119ea601f83611dee565b91507f746f6b656e4f776e6572206973206e6f742076616c69642061646472657373006000830152602082019050919050565b6000611a2a601183611dee565b91507f756e617574686f72697a65642063616c6c0000000000000000000000000000006000830152602082019050919050565b6000611a6a601283611dee565b91507f696e73756666696369656e742066756e647300000000000000000000000000006000830152602082019050919050565b6000611aaa601b83611dee565b91507f73656e646572206973206e6f742076616c6964206164647265737300000000006000830152602082019050919050565b6000611aea601c83611dee565b91507f7370656e646572206973206e6f742076616c69642061646472657373000000006000830152602082019050919050565b6000611b2a601883611dee565b91507f61646472657373206d757374206e6f74206265205a65726f00000000000000006000830152602082019050919050565b6000611b6a601e83611dee565b91507f726563697069656e74206973206e6f742076616c6964206164647265737300006000830152602082019050919050565b611ba681612092565b82525050565b6000602082019050611bc160008301846117ef565b92915050565b600060a0820190508181036000830152611be181886117fe565b90508181036020830152611bf581876117fe565b9050611c046040830186611b9d565b611c1160608301856117e0565b611c1e60808301846117e0565b9695505050505050565b60006020820190508181036000830152611c4181611837565b9050919050565b60006020820190508181036000830152611c6181611877565b9050919050565b60006020820190508181036000830152611c81816118b7565b9050919050565b60006020820190508181036000830152611ca1816118f7565b9050919050565b60006020820190508181036000830152611cc181611937565b9050919050565b60006020820190508181036000830152611ce18161199d565b9050919050565b60006020820190508181036000830152611d01816119dd565b9050919050565b60006020820190508181036000830152611d2181611a1d565b9050919050565b60006020820190508181036000830152611d4181611a5d565b9050919050565b60006020820190508181036000830152611d6181611a9d565b9050919050565b60006020820190508181036000830152611d8181611add565b9050919050565b60006020820190508181036000830152611da181611b1d565b9050919050565b60006020820190508181036000830152611dc181611b5d565b9050919050565b6000602082019050611ddd6000830184611b9d565b92915050565b600081519050919050565b600082825260208201905092915050565b6000611e0a82612092565b9150611e1583612092565b9250827fffffffffffffffffffffffffffffffffffffffffffffffffffffffffffffffff03821115611e4a57611e49612101565b5b828201905092915050565b6000808291508390505b6001851115611e9f57808604811115611e7b57611e7a612101565b5b6001851615611e8a5780820291505b8081029050611e9885612170565b9450611e5f565b94509492505050565b6000611eb382612092565b9150611ebe83612092565b9250611eeb7fffffffffffffffffffffffffffffffffffffffffffffffffffffffffffffffff8484611ef3565b905092915050565b600082611f035760019050611fbf565b81611f115760009050611fbf565b8160018114611f275760028114611f3157611f60565b6001915050611fbf565b60ff841115611f4357611f42612101565b5b8360020a915084821115611f5a57611f59612101565b5b50611fbf565b5060208310610133831016604e8410600b8410161715611f955782820a905083811115611f9057611f8f612101565b5b611fbf565b611fa28484846001611e55565b92509050818404811115611fb957611fb8612101565b5b81810290505b9392505050565b6000611fd182612092565b9150611fdc83612092565b9250817fffffffffffffffffffffffffffffffffffffffffffffffffffffffffffffffff048311821515161561201557612014612101565b5b828202905092915050565b600061202b82612092565b915061203683612092565b92508282101561204957612048612101565b5b828203905092915050565b600061205f82612072565b9050919050565b60008115159050919050565b600073ffffffffffffffffffffffffffffffffffffffff82169050919050565b6000819050919050565b60005b838110156120ba57808201518184015260208101905061209f565b838111156120c9576000848401525b50505050565b600060028204905060018216806120e757607f821691505b602082108114156120fb576120fa612130565b5b50919050565b7f4e487b7100000000000000000000000000000000000000000000000000000000600052601160045260246000fd5b7f4e487b7100000000000000000000000000000000000000000000000000000000600052602260045260246000fd5b6000601f19601f8301169050919050565b60008160011c9050919050565b61218681612054565b811461219157600080fd5b50565b61219d81612092565b81146121a857600080fd5b5056fea2646970667358221220dd22ea1e26ce1deb4bde4ea7158680a7c56db2215e90f6f794614c4fe3191d0464736f6c63430008000033",
  "immutableReferences": {},
  "source": "// SPDX-License-Identifier: MIT\n\n// 3A\n// Create a token based on ERC20 which is buyable. Following features should present;\n// 1. Anyone can get the token by paying against ether\n// 2. Add fallback payable method to Issue token based on Ether received. Say 1 Ether = 100 tokens.\n// 3. There should be an additional method to adjust the price that allows the owner to adjust the price.\n\n// 3B  \n// Please complete the ERC20 token with the following extensions;\n// 1. Capped Token: The minting token should not be exceeded from the Capped limit.\n// 2. TimeBound Token: The token will not be transferred until the given time exceed. For example Wages payment will be due after 30 days.\n// 3. should be deployed by using truffle or hardhat on any Ethereum test network\n// Note:  project should be share as a GitHub public repository\n\n//-------------------------------------------------------------------------------------------------------\n\npragma solidity ^0.8.0;\n\nimport \"./IERC20_wapda.sol\";\nimport \"./ERC20wapdaToken.sol\";\n\n\ncontract tokenSale is ERC20{\n    \n    // address payable owner; \n    uint public rate;           // rate of token = Ether\n    uint public fundRais;       //sum of ethers collecting during token sale\n    uint private maxSupply;\n    \n    constructor(){\n        maxSupply = 50000000*10**18;\n        rate = 100;                     // 1 ether = 100 WET \n    }\n    \n    fallback()external payable{\n        buyToken(payable(owner));\n    }\n    receive() external payable{\n        buyToken(payable(owner));\n    }\n    \n    function maxSupplyCap()public view returns(uint){\n        return maxSupply;\n    }\n    \n    function minting(address account, uint _mint)public  returns(bool){\n        require(account != address(0),\"account should not be zeor ac\");\n        require(ERC20.totalSupply() + (_mint*10**18) <= maxSupplyCap(),\"TokenCaped: Cap exceeded\");\n        ERC20.mint(account,_mint);\n        return true;\n    }\n    \n    function updateTokenRate(uint _newRate) public returns(uint newRate){\n        require(owner == msg.sender,\"unauthorized call\");\n        require(_newRate > 0,\"rate must not be Zero\");\n        rate = _newRate;\n        \n        return rate;\n    }\n    \n    function buyToken(address account) public payable returns(uint FundsRais){\n        uint tokensAllocation = msg.value * rate;\n        fundRais = fundRais + msg.value;\n        \n        require(account != address(0), \"address must not be Zero\");\n        require(msg.value > 0,\"minimum purchase must not be Zero ether\");\n        \n        // ERC20 token = new ERC20();  // new instance of ERC20 token\n        ERC20.buyTokens(account,tokensAllocation);\n        payable(owner).transfer(msg.value);\n        \n        return fundRais;\n    }\n}\n\n\n\n\n\n\n\n\n\n\n\n\n\n\n\n\n\n\n\n\n\n\n\n\n\n\n",
  "sourcePath": "C:\\Users\\ASIM_PIAIC_BCC\\Desktop\\Assignment 3B - Q3\\contracts\\wapdaTokenSale.sol",
  "compiler": {
    "name": "solc",
    "version": "0.8.0+commit.c7dfd78e.Emscripten.clang"
  },
  "schemaVersion": "3.4.3",
  "updatedAt": "2021-08-24T17:59:31.942Z",
  "networkType": "ethereum",
  "devdoc": {
    "kind": "dev",
    "methods": {},
    "version": 1
  },
  "userdoc": {
    "kind": "user",
    "methods": {},
    "version": 1
  }
}